:100000000EC01DC01CC01BC01AC06DC018C017C0D8
:1000100016C015C014C013C012C011C010C01124E6
:100020001FBECFE5D2E0DEBFCDBF10E0A0E6B0E05E
:1000300001C01D92AE39B107E1F702D06BC0E0CF2D
:10004000CF93DF9300D000D0CDB7DEB789B7826001
:1000500089BF80E886BD82E086BD94E093BF87BB00
:1000600080E28BBF81E085BB7894198286B3817072
:100070008A831B821B828B818C3360F4EB81F0E0DE
:100080008A81EE59FF4F80838B818F5F8B838B81B9
:100090008C33A0F3E981F0E086B38170EE59FF4F15
:1000A000808389818B3311F4198203C089818F5F2A
:1000B00089831C821B828B818C3370F4EB81F0E08E
:1000C000EE59FF4F90818C81890F8C838B818F5FDC
:1000D0008B838B818C3390F38C818E3110F0C19A9D
:1000E000D9CFC198D7CF1F920F920FB60F9211247C
:1000F0008F939F93809160009091610001969093FF
:100100006100809360009F918F910F900FBE0F90C0
:080110001F901895F894FFCF31
:00000001FF
