:100000000EC01DC01CC01BC01AC069C018C017C0DC
:1000100016C015C014C013C012C011C010C01124E6
:100020001FBECFE5D2E0DEBFCDBF10E0A0E6B0E05E
:1000300001C01D92A63CB107E1F702D067C0E0CF36
:10004000CF93DF9300D000D0CDB7DEB789B7826001
:1000500089BF80E886BD82E086BD94E093BF87BB00
:100060007894198286B381708A831B821B828B816C
:10007000843660F4EB81F0E08A81EE59FF4F808393
:100080008B818F5F8B838B818436A0F3E981F0E0D5
:1000900086B38170EE59FF4F80838981833611F4D6
:1000A000198203C089818F5F89831C821B828B81A7
:1000B000843670F4EB81F0E0EE59FF4F90818C8133
:1000C000890F8C838B818F5F8B838B81843690F338
:1000D0008C81823310F0C19AD9CFC198D7CF1F92AB
:1000E0000F920FB60F9211248F939F93809160000F
:1000F00090916100019690936100809360009F91C0
:100100008F910F900FBE0F901F901895F894FFCF0E
:00000001FF
