:100000000EC01DC01CC01BC01AC06BC018C017C0DA
:1000100016C015C014C013C012C011C010C01124E6
:100020001FBECFE5D2E0DEBFCDBF10E0A0E6B0E05E
:1000300001C01D92AC36B107E1F702D069C0E0CF34
:10004000CF93DF9300D000D0CDB7DEB789B7826001
:1000500089BF87E086BD83E086BD83B7816083BFAB
:1000600082E087BB7894198286B381708A831B8271
:100070001B828B818A3060F4EB81F0E08A81EE593B
:10008000FF4F80838B818F5F8B838B818A30A0F3BE
:10009000E981F0E086B38170EE59FF4F808389815A
:1000A000893011F4198203C089818F5F89831C8292
:1000B0001B828B818A3070F4EB81F0E0EE59FF4FA8
:1000C00090818C81890F8C838B818F5F8B838B8157
:1000D0008A3090F38C81853010F0C19AD9CFC198C5
:1000E000D7CF1F920F920FB60F9211248F939F9329
:1000F00080916000909161000196909361008093DF
:1001000060009F918F910F900FBE0F901F901895D8
:04011000F894FFCF91
:00000001FF
